:020000041000EA
:1000000000B5324B212058609868022188439860DF
:10001000D860186158612E4B002199600221596106
:100020000121F02299502B49196001219960352056
:1000300000F044F80222904214D00621196600F024
:1000400034F8196E01211966002018661A6600F04E
:100050002CF8196E196E196E052000F02FF8012189
:100060000842F9D1002199601B49196000215960AB
:100070001A491B48016001219960EB211966A021F2
:10008000196600F012F800219960164914480160C1
:100090000121996001BC002800D000471248134993
:1000A000086003C880F30888084703B5996A0420EC
:1000B0000142FBD001200142F8D103BD02B5186610
:1000C0001866FFF7F2FF186E186E02BD00000240BE
:1000D000000000180000070000035F00212200005C
:1000E000F4000018222000A00001001008ED00E03C
:1000F00000000000000000000000000074B24E7A12
:1001000000200420F7010010C3010010C5010010F9
:10011000C1010010C1010010C1010010C101001097
:10012000C1010010C1010010C1010010C701001081
:10013000C1010010C1010010C9010010CB01001065
:10014000CD010010CD010010CD010010CD01001037
:10015000CD010010CD010010CD010010CD01001027
:10016000CD010010CD010010CD010010CD01001017
:10017000CD010010CD010010CD010010CD01001007
:10018000CD010010CD010010CD010010CD010010F7
:10019000CD010010CD010010CD010010CD010010E7
:1001A000CD010010CD010010CD010010CD010010D7
:1001B000CD010010CD010010CD010010CD010010C7
:1001C00000BE00BE00BE00BE00BE00BE00F04BF888
:1001D000103800BEF2EB8871249E0010409E001083
:1001E0003402001090A31AE700202149086006C8D5
:1001F00081F3088810471F48006800282FD10DA4FC
:100200000ECC002902D000F012F8F9E71A491B4A77
:10021000002000E001C19142FCD1194988471949E9
:1002200088471949884700BEFDE701C901C29A42C3
:10023000FBD37047409E0010C00000209C0B0020A4
:100240001CA9001000000420000004201CA90010BC
:1002500000100420001004200000000070470B482C
:1002600005F00EFC0047EFF30580C0B270470000B8
:1002700008ED00E0000000D0A00B0020C81900200D
:10028000AD3400105D030010CD350010575600004E
:1002900006005250ABB36053D89B0010060052507A
:1002A000861C0302E89B0010060052505422A29DB7
:1002B000F09B001005005250DE65F4681CA9001088
:1002C000F8B5C0460448054B10B5834203D0044B33
:1002D000002B00D0984710BD9C0B00209C0B0020E9
:1002E0000000000006480749091A8910CB0F591869
:1002F00010B5491003D0044B002B00D0984710BD17
:100300009C0B00209C0B00200000000010B5074C47
:100310002378002B09D1FFF7D5FF054B002B02D026
:10032000044800E000BF0123237010BDA80B00208B
:1003300000000000D0980010054B10B5002B03D032
:100340000449054800E000BFFFF7CCFF10BDC046E0
:1003500000000000AC0B0020D0980010F0B5DE4685
:1003600045464E465746E0B583B006F083FC19205B
:1003700001F0FEFED024802324069B041620636235
:1003800001F0F6FE8023DB03636208F0CDFD0F2150
:100390001A2001F0A7FE002200211A2001F0BAFE67
:1003A00000211A2001F0D0FEE022354BD2011B685B
:1003B00000261340334A01AD1360334B01930123F0
:1003C0009846AF5D0136380001F0D2FE4346BB408F
:1003D0000022A3620121380001F09CFE042EF0D11E
:1003E0002A4C5A22002120000A3C06F039FA0A223F
:1003F0000121200006F034FA254B264E264F984660
:1004000007E0D02380221B0692049A610A2002F0A2
:1004100005FB3378022B00D1DCE245D9032B01D157
:1004200000F042FC042B17D11C4806F0F9FA012316
:100430003C22A3540132A3540132A3540132A354E9
:100440000132A3540132A3540132A3540132A35404
:100450000132A3540132A35402F048FC104A002395
:1004600005F0AEFB0F49100005F064FB235C002B88
:10047000C7D0D02380221B0692045A61C6E7C0462B
:1004800000C0044000D0044004050608A616002061
:1004900000E004407D02002070020020FC98001063
:1004A00040420F0010270000012BD5D1E24806F092
:1004B000B7FAE24B1B78012B01D101F05BF9002B5D
:1004C00001D100F0B1FD022B03D13220002102F056
:1004D0008DFADA4B5B78012B01D100F0BFFD002BC8
:1004E00001D101F073F9022B03D13220002102F077
:1004F0007DFAD24B9B78012B01D100F0C9FD002B76
:1005000001D101F04DF9022B03D13220002102F07C
:100510006DFACA4BDB78012B01D100F0D3FD002B23
:1005200001D101F0B9FB022B03D13220002102F0EE
:100530005DFAC24B1B79012B01D100F0DDFD002BD0
:1005400001D101F093FB022B03D13220002102F0F4
:100550004DFA3220002102F049FA3B78012B01D1FB
:1005600000F0E7FD002B01D101F06AFB022B03D163
:100570003220002102F03AFA7B78012B01D100F001
:10058000F1FD002B01D101F045FB022B03D13220FC
:10059000002102F02BFABB78012B01D100F0FBFD0A
:1005A000002B01D101F028FC022B03D132200021C5
:1005B00002F01CFAFB78012B01D100F005FE002BA4
:1005C00001D101F003FC022B03D13220002102F003
:1005D0000DFA3B79012B01D100F00FFE002B01D168
:1005E00001F0DEFB022B03D13220002102F0FEF9E4
:1005F0003220002102F0FAF9914B1B78012B01D136
:1006000000F019FE002B01D101F0B4FB022B03D145
:100610003220002102F0EAF9894B5B78012B01D1ED
:1006200000F023FE002B01D101F08EFB022B03D141
:100630003220002102F0DAF9814B9B78012B01D1A5
:1006400000F02DFE002B01D101F068FB022B03D13D
:100650003220002102F0CAF9794BDB78012B01D15D
:1006600000F037FE002B01D101F042FB022B03D139
:100670003220002102F0BAF9714B1B79012B01D114
:1006800000F041FE002B01D101F01CFB022B03D135
:100690003220002102F0AAF93220002102F0A6F94E
:1006A000684B1B78012B01D100F04BFE002B01D1D0
:1006B00001F002FD022B03D13220002102F096F955
:1006C000604B5B78012B01D100F055FE002B01D16E
:1006D00001F0DCFC022B03D13220002102F086F96C
:1006E000584B9B78012B01D100F05FFE002B01D10C
:1006F00001F0B6FC022B03D13220002102F076F982
:10070000504BDB78012B01D100F069FE002B01D1A9
:1007100001F090FC022B03D13220002102F066F997
:10072000484B1B79012B01D100F073FE002B01D146
:1007300001F06AFC022B03D13220002102F056F9AD
:100740003220002102F052F93F4B1B78012B01D1DE
:1007500000F086FE002B01D101F040FC022B03D1FA
:100760003220002102F042F9374B5B78012B01D196
:1007700000F090FE002B01D101F01AFC022B03D1F6
:100780003220002102F032F92F4B9B78012B01D14E
:1007900000F09AFE002B01D101F0F4FB022B03D1F3
:1007A0003220002102F022F9274BDB78012B01D106
:1007B00000F0A4FE002B01D101F0CEFB022B03D1EF
:1007C0003220002102F012F91F4B1B79012B01D1BD
:1007D00000F0AEFE002B01D101F0A8FB022B03D1EB
:1007E0003220002102F002F93220002102F0FEF84E
:1007F000164B1B78012B01D100F0B8FE002B01D164
:1008000001F07EFB022B03D13220002102F0EEF832
:100810000E4B5B78012B01D100F0C2FE002B01D101
:1008200001F058FB022B03D13220002102F0DEF848
:10083000064B9B780CE0C046D09800106802002060
:100840005002002060020020F80B002078020020F7
:10085000012B01D100F0BEFE002B01D101F024FBE1
:10086000022B03D13220002102F0C0F8574BDB7875
:10087000012B01D100F0C8FE002B01D101F0FEFADE
:10088000022B03D13220002102F0B0F84F4B1B792C
:10089000012B01D100F0D2FE002B01D101F0D8FADA
:1008A000022B03D13220002102F0A0F832200021D7
:1008B00002F09CF8464B1B78012B01D100F0DCFEC6
:1008C000002B01D101F0AEFA022B03D1322000211E
:1008D00002F08CF83E4B5B78012B01D100F0E6FE74
:1008E000002B01D101F080F9022B03D1322000212D
:1008F00002F07CF8364B9B78012B01D100F0F0FE22
:10090000002B01D101F05AF9022B03D13220002132
:1009100002F06CF82E4BDB78012B01D100F0FAFECF
:10092000002B01D101F034F9022B03D13220002138
:1009300002F05CF8264B1B79012B01D100F004FF7B
:10094000002B01D101F00EF9022B03D1322000213E
:1009500002F04CF83220002102F048F8D0210906BC
:1009600028784B680122C34093461A4200D073E5B1
:100970006B789C4662464B68D3405A461A4200D078
:100980006AE5AB7899464A464B68D3405A461A42C4
:1009900000D061E5EB789A4652464B68D3405A4600
:1009A0001A4200D058E5022333705B46834062460A
:1009B0004B625B4693404A464B625B4693405A46C5
:1009C0004B6253469A404A6246E5C0467802002090
:1009D000580200202B789946D54B1B78012B00D16B
:1009E000ABE2002B01D100F04FFF022B03D13220EC
:1009F000002101F0FBFFCE4B5B78012B00D1B4E26C
:100A0000002B01D100F024FF022B03D13220002162
:100A100001F0ECFFC64B9B78012B00D1BDE2002B0F
:100A200001D100F0FFFE022B03D13220002101F0A2
:100A3000DDFFBF4BDB78012B00D1C6E2002B01D1DB
:100A400000F0DAFE022B03D13220002101F0CEFFAC
:100A5000B74B1B79012B00D1CFE2002B01D101F064
:100A60006BF8022B03D13220002101F0BFFF3220AE
:100A7000002101F0BBFF6B789946AE4B1B78012B30
:100A800001D101F044F8002B01D101F02AF8022B2A
:100A900003D13220002101F0A9FFA64B5B78012B86
:100AA00001D101F009F8002B01D100F0EFFF022B7A
:100AB00003D13220002101F099FF9E4B9B78012B3E
:100AC00001D100F0CEFF002B01D100F0B4FF022BCA
:100AD00003D13220002101F089FF964BDB78012BF6
:100AE00001D100F093FF002B01D100F079FF022B20
:100AF00003D13220002101F079FF8E4B1B79012BAD
:100B000001D100F058FF002B01D100F03EFF022B75
:100B100003D13220002101F069FF3220002101F0D1
:100B200065FFAB789946844B1B78012B01D100F00F
:100B300017FF002B01D100F0FDFE022B03D1322064
:100B4000002101F053FF7C4B5B78012B01D100F0B9
:100B5000DCFE002B01D100F0C2FE022B03D13220BB
:100B6000002101F043FF744B9B78012B01D100F071
:100B7000A1FE002B00D1B6E1022B03D132200021CF
:100B800001F034FF6C4BDB78012B00D197E1002B97
:100B900000D17FE1022B03D13220002101F026FF9A
:100BA000654B1B79012B00D160E1002B00D148E19E
:100BB000022B03D13220002101F018FF3220002146
:100BC00001F014FFEB7899465C4B1B78012B00D1A8
:100BD00023E1002B00D10BE1022B03D132200021B5
:100BE00001F004FF554B5B78012B00D1ECE0002BAA
:100BF00000D1D4E0022B03D13220002101F0F6FE17
:100C00004E4B9B78012B00D1B5E0002B00D19DE02D
:100C1000022B03D13220002101F0E8FE474BDB78A4
:100C2000012B71D0002B5AD0022B03D1322000218E
:100C300001F0DCFE414B1B79012B3CD0002B00D195
:100C400066E1022B03D13220002101F0CFFE00210A
:100C5000322001F0CBFE4246042380211360384A43
:100C6000490013680B42FCD053684246042380219C
:100C70001360334A490013680B42FCD05168314875
:100C80000904090C05F0EAFF0A2005F073FE0123B0
:100C900023756375A375E37523766376A376E37690
:100CA00023776377FFF7D8FB274805F0B9FE0123C8
:100CB0002822FFF7BEFB4A4693409946D0234A4676
:100CC0001B069A465A611E20002101F08FFE5346F2
:100CD0004A4614209A61002101F088FEB7E74A468F
:100CE000012393409A46D02352461B069B465A61E5
:100CF0000A20002101F07AFE5B46524628209A61C4
:100D0000002101F073FE95E74A4693409A46D023AE
:100D100052461B069B465A611E20002101F066FECA
:100D20005B46524614209A61002101F05FFE81E784
:100D3000480200209002002080020020880200204B
:100D400000C00440E4980010E89800104A460123CF
:100D500093409A46D02352461B069B465A610A206E
:100D6000002101F043FE5B46524628209A61002193
:100D700001F03CFE52E74A4693409A46D023524641
:100D80001B069B465A611E20002101F02FFE5B4688
:100D9000524614209A61002101F028FE3EE74A469F
:100DA000012393409A46D02352461B069B465A6124
:100DB0000A20002101F01AFE5B46524628209A6163
:100DC000002101F013FE1BE74A4693409A46D023C8
:100DD00052461B069B465A611E20002101F006FE6A
:100DE0005B46524614209A61002101F0FFFD07E79F
:100DF0004A46012393409A46D02352461B069B46FF
:100E00005A610A20002101F0F1FD5B46524628207C
:100E10009A61002101F0EAFDE4E64A4693409A46D1
:100E2000D02352461B069B465A611E20002101F02A
:100E3000DDFD5B46524614209A61002101F0D6FD8B
:100E4000D0E64A46012393409946D0234A461B06E2
:100E50009A465A610A20002101F0C8FD53464A46CD
:100E600028209A61002101F0C1FDA7E64A4693407F
:100E70009946D0234A461B069A465A611E200021F5
:100E800001F0B4FD53464A4614209A61002101F056
:100E9000ADFD93E64A46012393409A46D02352463D
:100EA0001B069B465A610A20002101F09FFD5B460C
:100EB000524628209A61002101F098FD70E64A46CA
:100EC00093409A46D02352461B069B465A611E20E9
:100ED000002101F08BFD5B46524614209A610021EF
:100EE00001F084FD5CE64A46012393409A46D023F4
:100EF00052461B069B465A610A20002101F076FDEE
:100F00005B46524628209A61002101F06FFD39E6C8
:100F10004A46012393409946D0234A461B069A46E7
:100F20005A610A20002101F061FD53464A462820FB
:100F30009A61002101F05AFD89E64A4693409A469B
:100F4000D02352461B069B465A611E20002101F009
:100F50004DFD5B46524614209A61002101F046FD8A
:100F6000304B5B78012B00D04AE54A4693409A46C5
:100F7000D02352461B069B465A611E20002101F0D9
:100F800035FD5B46524614209A61002101F02EFD8A
:100F9000244B9B78012B00D041E54A4693409A466A
:100FA000D02352461B069B465A611E20002101F0A9
:100FB0001DFD5B46524614209A61002101F016FD8A
:100FC000184BDB78012B00D038E54A4693409A460F
:100FD000D02352461B069B465A611E20002101F079
:100FE00005FD5B46524614209A61002101F0FEFC8B
:100FF0000C4B1B79012B00D02FE54A4693409946B4
:10100000D0234A461B069A465A611E20002101F051
:10101000EDFC53464A4614209A61002101F0E6FC9B
:1010200025E5C04648020020D0231B0699468023B0
:10103000DB039A464B4652460A205A61002101F0D2
:10104000D5FC4B46524628209A61002101F0CEFC87
:10105000FD4B5B78012B01D0FFF741FAD0231B0633
:1010600099468023DB039A464B4652461E205A611E
:10107000002101F0BBFC4B46524614209A6100212E
:1010800001F0B4FCF04B9B78012B01D0FFF737FA4D
:10109000D0231B0699468023DB039A464B465246D3
:1010A0001E205A61002101F0A1FC4B46524614203B
:1010B0009A61002101F09AFCE34BDB78012B01D00F
:1010C000FFF72DFAD0231B0699468023DB039A46AF
:1010D0004B4652461E205A61002101F087FC4B46C8
:1010E000524614209A61002101F080FCD64B1B79F6
:1010F000012B01D0FFF723FAD0231B06994680234A
:10110000DB039A464B4652461E205A61002101F0ED
:101110006DFC4B46524614209A61002101F066FC9A
:101120003220002101F062FC3B78012B01D0FFF757
:1011300019FAD0231B0699468023DB039A464B46B7
:1011400052461E205A61002101F050FC4B46524687
:1011500014209A61002101F049FC7B78012B01D019
:10116000FFF70FFAD0231B0699468023DB039A462C
:101170004B4652461E205A61002101F037FC4B4677
:10118000524614209A61002101F030FCBB78012BFB
:1011900001D0FFF705FAD0231B0699468023DB0315
:1011A0009A464B4652461E205A61002101F01EFC11
:1011B0004B46524614209A61002101F017FCFB783F
:1011C000012B01D0FFF7FBF9D0231B0699468023A2
:1011D000DB039A464B4652461E205A61002101F01D
:1011E00005FC4B46524614209A61002101F0FEFB9B
:1011F0003B79012B01D0FFF7F1F9D0231B0699466B
:101200008023DB039A464B4652461E205A6100213A
:1012100001F0ECFB4B46524614209A61002101F08C
:10122000E5FB3220002101F0E1FB884B1B78012B0C
:1012300001D0FFF7E7F9D0231B0699468023DB0393
:101240009A464B4652461E205A61002101F0CEFBC1
:101250004B46524614209A61002101F0C7FB7B4B9C
:101260005B78012B01D0FFF7DDF9D0231B069946EF
:101270008023DB039A464B4652461E205A610021CA
:1012800001F0B4FB4B46524614209A61002101F054
:10129000ADFB6E4B9B78012B01D0FFF7D3F9D02328
:1012A0001B0699468023DB039A464B4652461E2076
:1012B0005A61002101F09AFB4B46524614209A6174
:1012C000002101F093FB614BDB78012B01D0FFF78C
:1012D000C9F9D0231B0699468023DB039A464B4667
:1012E00052461E205A61002101F080FB4B465246B7
:1012F00014209A61002101F079FB544B1B79012BDA
:1013000001D0FFF7BFF9D0231B0699468023DB03EA
:101310009A464B4652461E205A61002101F066FB58
:101320004B46524614209A61002101F05FFB3220A7
:10133000002101F05BFB464B1B78012B01D0FFF72E
:10134000B5F9D0231B0699468023DB039A464B460A
:1013500052461E205A61002101F048FB4B4652467E
:1013600014209A61002101F041FB394B5B78012B7D
:1013700001D0FFF7ABF9D0231B0699468023DB038E
:101380009A464B4652461E205A61002101F02EFB20
:101390004B46524614209A61002101F027FB2C4B4A
:1013A0009B78012B01D0FFF7A1F9D0231B069946AA
:1013B0008023DB039A464B4652461E205A61002189
:1013C00001F014FB4B46524614209A61002101F0B3
:1013D0000DFB1F4BDB78012B01D0FFF797F9D023D2
:1013E0001B0699468023DB039A464B4652461E2035
:1013F0005A61002101F0FAFA4B46524614209A61D4
:10140000002101F0F3FA124B1B79012B01D0FFF7F9
:101410008DF9D0231B0699468023DB039A464B4661
:1014200052461E205A61002101F0E0FA4B46524616
:1014300014209A61002101F0D9FA3220002101F034
:10144000D5FA044B1B7807E0680200205002002008
:1014500060020020F80B0020012B01D0FFF77AF981
:10146000D0231B0699468023DB039A464B465246FF
:101470001E205A61002101F0B9FA4B465246142051
:101480009A61002101F0B2FAFC4B5B78012B01D08C
:10149000FFF770F9D0231B0699468023DB039A4699
:1014A0004B4652461E205A61002101F09FFA4B46DE
:1014B000524614209A61002101F098FAEF4B9B7874
:1014C000012B01D0FFF766F9D0231B069946802334
:1014D000DB039A464B4652461E205A61002101F01A
:1014E00085FA4B46524614209A61002101F07EFA9B
:1014F000E24BDB78012B01D0FFF75CF9D0231B0610
:1015000099468023DB039A464B4652461E205A6179
:10151000002101F06BFA4B46524614209A610021DB
:1015200001F064FAD54B1B79012B01D0FFF752F97A
:10153000D0231B0699468023DB039A464B4652462E
:101540001E205A61002101F051FA4B4652461420E8
:101550009A61002101F04AFA3220002101F046FA96
:10156000C74B1B78012B01D0FFF748F9D0231B068E
:1015700099468023DB039A464B4652461E205A6109
:10158000002101F033FA4B46524614209A610021A3
:1015900001F02CFABA4B5B78012B01D0FFF73EF932
:1015A000D0231B0699468023DB039A464B465246BE
:1015B0001E205A61002101F019FA4B4652461420B0
:1015C0009A61002101F012FAAD4B9B78012B01D0FA
:1015D000FFF742F9D0231B0699468023DB039A4686
:1015E0004B4652461E205A61002101F0FFF94B463E
:1015F000524614209A61002101F0F8F9A04BDB78E3
:10160000012B01D0FFF738F9D0231B069946802320
:10161000DB039A464B4652461E205A61002101F0D8
:10162000E5F94B46524614209A61002101F0DEF99B
:10163000934B1B79012B01D0FFF72EF9D0231B060A
:1016400099468023DB039A464B4652461E205A6138
:10165000002101F0CBF94B46524614209A6100213B
:1016600001F0C4F93220002101F0C0F9854B1B784C
:10167000012B01D0FFF724F9D0231B0699468023C4
:10168000DB039A464B4652461E205A61002101F068
:10169000ADF94B46524614209A61002101F0A6F99B
:1016A000784B5B78012B01D0FFF71AF9D0231B068A
:1016B00099468023DB039A464B4652461E205A61C8
:1016C000002101F093F94B46524614209A61002103
:1016D00001F08CF96B4B9B78012B01D0FFF710F9CF
:1016E000D0231B0699468023DB039A464B4652467D
:1016F0001E205A61002101F079F94B465246142010
:101700009A61002101F072F95E4BDB78012B01D068
:10171000FFF706F9D0231B0699468023DB039A4680
:101720004B4652461E205A61002101F05FF94B469C
:10173000524614209A61002101F058F9514B1B794F
:10174000012B01D0FFF7FCF8D0231B06994680231C
:10175000DB039A464B4652461E205A61002101F097
:1017600045F94B46524614209A61002101F03EF99A
:10177000FFF7F0F8D0231B0699468023DB039A4637
:101780004B4652461E205A61002101F02FF94B466C
:10179000524614209A61002101F028F9FEF799FEC3
:1017A000D0231B0699468023DB039A464B465246BC
:1017B0000A205A61002101F019F94B4652462820AF
:1017C0009A61002101F012F9FEF7A3FED0231B0657
:1017D00099468023DB039A464B4652460A205A61BB
:1017E000002101F003F94B46524628209A6100215E
:1017F00001F0FCF8FEF77DFE4A46012393409A462D
:10180000D02352461B069B465A610A20002101F054
:10181000EDF85B46524628209A61002101F0E6F877
:10182000FFF716F94A46012393409A46D0235246C1
:101830001B069B465A610A20002101F0D7F85B463F
:10184000524628209A61002101F0D0F8FFF7F1F804
:101850004A46012393409A46D02352461B069B4694
:101860005A610A20002101F0C1F85B465246282047
:101870009A61002101F0BAF8FFF7CCF8F80B0020CC
:1018800078020020580200204A46012393409A46DD
:10189000D02352461B069B465A610A20002101F0C4
:1018A000A5F85B46524628209A61002101F09EF877
:1018B000FFF7A1F84A4693409A46D02352461B06AA
:1018C0009B465A611E20002101F090F85B4652466B
:1018D00014209A61002101F089F8FFF753F94A4674
:1018E000012393409A46D02352461B069B465A61D9
:1018F0000A20002101F07AF85B46524628209A61BE
:10190000002101F073F8FFF72EF94A4693409A46FA
:10191000D02352461B069B465A611E20002101F02F
:1019200065F85B46524614209A61002101F05EF88A
:10193000FFF719F94A46012393409A46D0235246AD
:101940001B069B465A610A20002101F04FF85B46B6
:10195000524628209A61002101F048F8FFF7F3F879
:101960004A4693409A46D02352461B069B465A61EC
:101970001E20002101F03AF85B46524614209A617D
:10198000002101F033F8FFF7DEF84A4601239340C7
:101990009946D0234A461B069A465A610A200021DE
:1019A00001F024F853464A4628209A61002101F0AC
:1019B0001DF8FFF7B2F84A4693409946D0234A46AD
:1019C0001B069A465A611E20002101F00FF853466B
:1019D0004A4614209A61002101F008F8FFF79DF8AB
:1019E0004A46012393409A46D02352461B069B4603
:1019F0005A610A20002100F0F9FF5B465246282078
:101A00009A61002100F0F2FFFFF777F84A46934011
:101A10009A46D02352461B069B465A611E2000213F
:101A200000F0E4FF5B46524614209A61002100F06A
:101A3000DDFFFFF762F84A46012393409A46D02320
:101A400052461B069B465A610A20002100F0CEFF39
:101A50005B46524628209A61002100F0C7FFFFF73D
:101A60003CF84A4693409A46D02352461B069B4672
:101A70005A611E20002100F0B9FF5B465246142037
:101A80009A61002100F0B2FFFFF727F84A460123D0
:101A900093409A46D02352461B069B465A610A2021
:101AA000002100F0A3FF5B46524628209A610021E6
:101AB00000F09CFFFFF701F84A4693409A46D02376
:101AC00052461B069B465A611E20002100F08EFFE5
:101AD0005B46524614209A61002100F087FFFEF712
:101AE000ECFF4A46012393409A46D02352461B06F8
:101AF0009B465A610A20002100F078FF5B4652465F
:101B000028209A61002100F071FFFEF7C6FF4A46C7
:101B100093409A46D02352461B069B465A611E208C
:101B2000002100F063FF5B46524614209A610021B9
:101B300000F05CFFFEF7B1FF4A460123934099464F
:101B4000D0234A461B069A465A610A20002100F01B
:101B50004DFF53464A4628209A61002100F046FF77
:101B6000FEF785FFD0231B0699468023DB039A46A8
:101B70004B4652460A205A61002100F037FF4B467F
:101B8000524628209A61002100F030FFFEF7E2FE65
:101B9000D0231B0699468023DB039A464B465246C8
:101BA0000A205A61002100F021FF4B4652462820AE
:101BB0009A61002100F01AFFFEF7BCFED0231B063D
:101BC00099468023DB039A464B4652460A205A61C7
:101BD000002100F00BFF4B46524628209A6100215D
:101BE00000F004FFFEF796FED0231B0699468023E3
:101BF000DB039A464B4652460A205A61002100F008
:101C0000F5FE4B46524628209A61002100F0EEFE78
:101C1000FEF770FED0231B0699468023DB039A460D
:101C20004B4652460A205A61002100F0DFFE4B4627
:101C3000524628209A61002100F0D8FEFEF7ABFC46
:101C4000D0231B0699468023DB039A464B46524617
:101C50000A205A61002100F0C9FE4B465246282056
:101C60009A61002100F0C2FEFEF786FCD0231B061D
:101C700099468023DB039A464B4652460A205A6116
:101C8000002100F0B3FE4B46524628209A61002105
:101C900000F0ACFEFEF75DFCD0231B0699468023C6
:101CA000DB039A464B4652460A205A61002100F057
:101CB0009DFE4B46524628209A61002100F096FE78
:101CC000FEF737FCD0231B0699468023DB039A4698
:101CD0004B4652460A205A61002100F087FE4B46CF
:101CE000524628209A61002100F080FEFEF7D4FCC5
:101CF000D0231B0699468023DB039A464B46524667
:101D00000A205A61002100F071FE4B4652462820FD
:101D10009A61002100F06AFEFEF7AEFCD0231B069C
:101D200099468023DB039A464B4652460A205A6165
:101D3000002100F05BFE4B46524628209A610021AC
:101D400000F054FEFEF788FCD0231B069946802342
:101D5000DB039A464B4652460A205A61002100F0A6
:101D600045FE4B46524628209A61002100F03EFE77
:101D7000FEF762FCD0231B0699468023DB039A46BC
:101D80004B4652460A205A61002100F02FFE4B4676
:101D9000524628209A61002100F028FEFEF73CFC04
:101DA000D0231B0699468023DB039A464B465246B6
:101DB0000A205A61002100F019FE4B4652462820A5
:101DC0009A61002100F012FEFEF712FCD0231B06E0
:101DD00099468023DB039A464B4652460A205A61B5
:101DE000002100F003FE4B46524628209A61002154
:101DF00000F0FCFDFEF7EDFBD0231B069946802387
:101E0000DB039A464B4652460A205A61002100F0F5
:101E1000EDFD4B46524628209A61002100F0E6FD78
:101E2000FEF7C8FBD0231B0699468023DB039A46A6
:101E30004B4652460A205A61002100F0D7FD4B461E
:101E4000524628209A61002100F0D0FDFEF742FDA5
:101E5000D0231B0699468023DB039A464B46524605
:101E60000A205A61002100F0C1FD4B46524628204D
:101E70009A61002100F0BAFDFEF718FDD0231B0681
:101E800099468023DB039A464B4652460A205A6104
:101E9000002100F0ABFD4B46524628209A610021FC
:101EA00000F0A4FDFEF7F2FCD0231B069946802328
:101EB000DB039A464B4652460A205A61002100F045
:101EC00095FD4B46524628209A61002100F08EFD78
:101ED000FEF7CCFCD0231B0699468023DB039A46F1
:101EE0004B4652460A205A61002100F07FFD4B46C6
:101EF000524628209A61002100F078FDFEF798FCF8
:101F0000D0231B0699468023DB039A464B46524654
:101F10000A205A61002100F069FD4B4652462820F4
:101F20009A61002100F062FDFEF772FCD0231B06CF
:101F300099468023DB039A464B4652460A205A6153
:101F4000002100F053FD4B46524628209A610021A3
:101F500000F04CFDFEF748FCD0231B069946802379
:101F6000DB039A464B4652460A205A61002100F094
:101F70003DFD4B46524628209A61002100F036FD77
:101F8000FEF722FCD0231B0699468023DB039A46EA
:101F90004B4652460A205A61002100F027FD4B466D
:101FA000524628209A61002100F020FDFEF7FCFB3C
:101FB000D0231B0699468023DB039A464B465246A4
:101FC0000A205A61002100F011FD4B46524628209C
:101FD0009A61002100F00AFDFEF7D6FBD0231B0614
:101FE00099468023DB039A464B4652460A205A61A3
:101FF000002100F0FBFC4B46524628209A6100214C
:1020000000F0F4FCFEF7B0FBD0231B0699468023BA
:10201000DB039A464B4652460A205A61002100F0E3
:10202000E5FC4B46524628209A61002100F0DEFC78
:10203000FEF786FBD0231B0699468023DB039A46D6
:102040004B4652460A205A61002100F0CFFC4B4615
:10205000524628209A61002100F0C8FCFEF760FB80
:10206000D0231B0699468023DB039A464B465246F3
:102070000A205A61002100F0B9FC4B465246282044
:102080009A61002100F0B2FCFEF73AFBD0231B0658
:1020900099468023DB039A464B4652460A205A61F2
:1020A000002100F0A3FC4B46524628209A610021F3
:1020B00000F09CFCFEF714FBD0231B0699468023FE
:1020C000DB039A464B4652460A205A61002100F033
:1020D0008DFC4B46524628209A61002100F086FC78
:1020E000FEF7EEFA094A830094464022634410B595
:1020F0001C68C0006240C024144080225201134377
:102100001C60034B9C466044416010BD04C001400C
:10211000004001400B4B80009C46604400290DD0DC
:102120000C210823002A00D00B00026853400C2227
:102130001A4080235B01184302607047042100238A
:10214000F0E7C04604C00140084B80009C46604454
:10215000002905D1C0239B01184340230360704729
:1021600080239B01184340230360F8E704C001402B
:102170000123D0228340120693629361094A8300AF
:102180009446402263441968C0004A40C02111406F
:102190008022520113431960034B9C46052360447F
:1021A0004360704704C0014000400140F8B5EFF3C0
:1021B000108C72B60D4F3B68002BFCD0BFF35F8FC5
:1021C000CB08C018057807242B000C40E3400126FB
:1021D000334008D1A64035430570BFF35F8F3B60A5
:1021E0008CF31088F8BD100001F0F2F92C0100D03A
:1021F000F8B54746CE46884680B5EFF3108C72B6E8
:10220000214D2C68002CFCD0BFF35F8F9A422DD853
:10221000D40804192678072537001540EF40F90740
:102220001ED507218946063908E0D4080419267806
:102230004D4637001540EF40394211D001329342EC
:10224000F3D201204042BFF35F8F00220E4B1A6091
:102250008CF31088002811DB0CBC90469946F8BD21
:102260000123AB401E4326701000ECE7BFF35F8FE5
:1022700000232B608CF31088012040424346002B42
:10228000EAD0089801F0A4F92C0100D00021044BF9
:10229000044ABFF35F8F02C39342FAD17047C0462E
:1022A000000100D0800100D0044A1078431CDBB24A
:1022B000172B00D9102313707047C04695020020D9
:1022C00000B5054B83B00100009318221F2303487B
:1022D000FFF78EFF03B000BD10990010800F0020A3
:1022E000024B18688007C00F7047C04600C0064008
:1022F00083680B4810B584466144624409011201A9
:102300009A18591854684B6801209C4201D802D091
:102310000020C0B210BD12680B689A42F9D8F7E7E6
:10232000FFFFFF0F40BF002000217047F0B5574668
:1023300045464E46DE46E0B583B01F000FAB1B7826
:102340000E9C804616009A460568002C40D04246F6
:102350009268E3B294469B46394B0C9AE3181B01F2
:1023600063449A600D9A1E605F60DA6063001B1917
:10237000DA1E9446019200222B6863449A705A70C8
:102380001A706B7B9946002B3ED019005A466B6839
:10239000A86898474B465B004B44033B002827D076
:1023A00001992A688C464946D3186244917019787D
:1023B000002941D15A461A704B4620006B73A14543
:1023C00024D003B03CBC90469946A246AB46F0BD33
:1023D000AC7B0020002CF4D02A68630094461B19C3
:1023E0006344033B5B78AB73002BB0D1EB73AEE778
:1023F0002968019ACB188A185946997011780029D2
:1024000000D059704B4613705B466B7343463200E5
:10241000187D3B0000F0CCFC051E07D05346002B76
:1024200004D143465946186800F0A0FE109B002BCB
:1024300004D01D702000C4E75170BBE72000C0E746
:10244000FFFFFF0FF0B5DE46454657464E46724B3E
:102450008200E0B5D55800238DB00B909B4627E055
:10246000069A079B1100194303D02B69002B00D05B
:1024700093E02B68DA7B002A07D051008A1819688C
:102480008C4649466244033A51704A46DA73EA6818
:102490004B469446013B63441A7801321A705B46FE
:1024A0002B616B68BFF35F8F5A461A6084F3108804
:1024B00000F01CFC6A68EFF3108472B61368002BFE
:1024C000FCD0BFF35F8F2B689C465B7B9946002B4B
:1024D0005BD0AA68514B90464B441B01984443463D
:1024E0001A685B6816001F00361A8F41002F6EDDD8
:1024F0000B9800F05DFC00220023002700260892C4
:1025000009936B68BFF35F8F5A461A6084F3108893
:10251000002E76D0534618024B4639001843B04778
:102520006A6806900791EFF3108472B61368002B67
:10253000FCD0BFF35F8F079B002B91DA2B69002B38
:1025400097D006980799089A099B121A8B41089808
:10255000099906920793079A914203D807D1069AE0
:10256000904204D901225242D317069207935B4648
:10257000012104934B460391029301970096069A1A
:10258000079B2800FFF7D2FE89E7002200230027DF
:102590000892099300260020B3E700F0A7FB069AF3
:1025A000079B12184B41994202D804D1904202D99C
:1025B00001225242D3175946049101210391494601
:1025C0000197029100962800FFF7B0FE67E7002F01
:1025D00001D1002E8CD10121604600F01BFD434645
:1025E0001A685B680892099343469E68DF68EB6847
:1025F0004B44013B1B789A461B021843286100207C
:102600007FE7002800D053E70DB03CBC90469946C8
:10261000A246AB46F0BDC0466C160020FFFFFF0F80
:1026200070B5184C2368002B00D070BD032000F05B
:1026300051FB032000F016FC1349032000F072FB4D
:10264000182004F0FDF80500FFF72EFE0F4B2A00BE
:102650009C466044800068600D49102000F0AAFC90
:1026600010212860102004F0EFF80121A86010204C
:1026700004F0EAF803232B75064BE860DD60256063
:10268000D3E7C046AC0F00204524001040000034C2
:10269000F12200106C160020014B18687047C046EC
:1026A000AC0F0020F0B54546DE4657464E46E0B535
:1026B00085B00092019310AB1B7805009B46002368
:1026C0009A4698466A68EFF3108972B61368002B31
:1026D000FCD0BFF35F8F2E68B47B002C0ED16B68EB
:1026E000BFF35F8F1C6089F310880120404205B062
:1026F0003CBC90469946A246AB46F0BD67003F19E8
:102700003368033FDB195B78B373002B00D1F3739D
:10271000AA68494B94460099019AE3181B01634447
:1027200019605A600E9A9A600F9ADA6042463368CE
:10273000DB199A705A701A70737B0393002B64D064
:10274000190022007368B0689847039932688C4674
:102750004B006344033B002850D0D719D318B970FD
:102760001A78002A64D11C7071738C424ED0EB68C9
:102770001B19013B18786B68BFF35F8F42461A60E4
:1027800089F310885346002B02D100022043AEE7A4
:102790005B46002B4ED00E9B0F99002098470300FC
:1027A0000B4347D006000F1E15DA0098019902006E
:1027B0000B00921BBB41994202D808D1904206D926
:1027C00001235B42DC1700930194DA467AE700921A
:1027D0000193DA4676E700F089FA36184F41330064
:1027E0003C0000930194B942EAD8EED1B042ECD952
:1027F00001235B42DC1700930194E6E7D318D71955
:102800009C703A78002A0ED139707473287D009A32
:10281000019B00F0CDFA82460028A8D0210028684C
:1028200000F0A4FCA3E75A70039B3B707473EDE7C0
:102830007A7098E700205AE7FFFFFF0FF0B5574680
:102840004E464546DE460400E0B50D0006267642BB
:10285000F71736196F4183B08F4230D82DD000F072
:1028600045FA32003B00121A8B41002B31DD5B4BE5
:102870001B6899465A68EFF3108B72B61368002BE9
:10288000FCD0BFF35F8F4B461B6898469B7B9A46F4
:10289000002B23D14B465B68BFF35F8F52461A6013
:1028A0008BF310882000290000F02CFA03B03CBC08
:1028B00090469946A246AB46F0BD8642CFD9002647
:1028C000002700F013FA32003B00121A8B41002B54
:1028D000CDDC002BE6D1002AC9D1E3E75B005344ED
:1028E000DA1E43469446009242461B6863445B7876
:1028F0009373002B00D1D3734A469268384B9446A9
:102900005344384A1B0163449A6000221E605F6092
:10291000DA60009943468C461B6863449A705A708B
:102920001A7043465B7B0193002B37D01900434656
:10293000524698685B689847019942468C464B001E
:102940006344033B1268002839D00098D3188446AA
:10295000624491701978002900D0517052461A7063
:102960004246019B53739A451BD04B465B68BFF3AD
:102970005F8F00221A608BF310881B4A390003E036
:10298000994200D08EE720BF536A9942FBD8906AE3
:10299000B04200D386E7F3E7019B0B7043465246F3
:1029A0005A734B463200187D3B0000F001FA0028B4
:1029B000DBD04B465146186800F0D8FBD5E70099AC
:1029C000D318511852469A700A78002AE4D05A70E7
:1029D000019B52460B7043465A73E2E7AC0F00204E
:1029E000FFFFFF0F252300100040054070B50400D5
:1029F0000D0000F07BF902000B0020002900801878
:102A000059418B4205D901204042C117FFF716FFFB
:102A100070BD8B42FAD18242F5D8F7E770B5060057
:102A200000F064F9FA2204000D0092000023300047
:102A3000002103F0A1FE001969418D4205D9012052
:102A40004042C117FFF7FAFE70BD8D42FAD18442B1
:102A5000F5D8F7E7F0B557464546DE464E46E0B5B1
:102A60006C4B83B01D6882460F0098466A68EFF38E
:102A7000108972B61368002BFCD0BFF35F8F2E68ED
:102A8000B47B002C1AD16B68BFF35F8F1C6089F395
:102A90001088614A0026536A9F4207D8926A01361D
:102AA000524503D2FF1A7B1E9F41FEB2300003B095
:102AB0003CBC90469946A246AB46F0BD63001B194C
:102AC000DA1E94463368019263445B78B373002B3B
:102AD00000D1F373AA68514B94465246E3181B0188
:102AE00063441A604E4A01999A6000228C46DA606B
:102AF0005F60336863449A705A701A70737B9B46A8
:102B0000002B6AD0220073685946B06898475B462C
:102B10005B005B44033B3268002855D00199D31811
:102B20008C46594662449170197800296CD11C700A
:102B30005B4673735C4551D00026EB686A681B19CD
:102B4000013B1B78BFF35F8F0021116089F3108870
:102B5000002E9ED11B021C4320BF43461D686A689D
:102B6000EFF3108872B61368002BFCD0BFF35F8FB1
:102B7000FF232868E1B2427B23408A420AD05A00F0
:102B800091460268994494464A466244033A9278D0
:102B9000002A2FD0EA68240A94466344013B1B783C
:102BA000A34233D06B68BFF35F8F00221A6088F3B3
:102BB0001088194A536A9F4200D977E7926A012622
:102BC000524500D372E76DE70199D31851189C70F4
:102BD0000A78002A13D15B460B707473287D524625
:102BE0003B0000F0E5F8061EA6D02100286800F0A2
:102BF000BDFAA2E72B699C42D4D12A61D2E75A7070
:102C00005B460B707473E9E7517090E700F0AEFA21
:102C1000C8E7C046AC0F002000400540FFFFFF0F93
:102C200025230010F0B5C64600B5EFF305833F221B
:102C3000134018001038EFF3108772B61F4D2A6842
:102C4000002AFCD0BFF35F8F01221100814088462B
:102C500044461B494C631B4C2678A4463400C440B0
:102C6000224007D1BFF35F8F2A6087F3108804BC2E
:102C70009046F0BD4C6A1449820051588C420FD3E3
:102C8000124BD25843469E4363461E70BFF35F8F7C
:102C900000232B6087F31088002AE8D09047E6E7EE
:102CA0000B4A9B00944663441A681A60BFF35F8F17
:102CB00000232B6087F31088D9E7C046280100D095
:102CC000004005409916002084160020700F002057
:102CD000D03F054010B50100024A0348FFF766FAED
:102CE00010BDC0462C99001097160020044A516A66
:102CF00000E01900906A536A9942FAD17047C046C1
:102D000000400540064A536A9942FCD807D1044B5B
:102D100002E05A6A914202D19A6A8242F9D370471C
:102D20000040054070B504000D00EFF3108672B648
:102D30001A4A1368002BFCD0BFF35F8F002D1BD005
:102D4000200000F039FE164988420AD0200000F029
:102D50003BFE0121200000F015FE0123A340114A93
:102D60001360114BA400E550BFF35F8F00220B4BA3
:102D70001A6086F3108870BD0B4BA200D55001225B
:102D8000A2400A4920000B7893430B70044900F0DD
:102D900045FE0021200000F0F5FDE5E7280100D008
:102DA000252C001038600540700F00209916002077
:102DB000F0B5CE464746274C80B5656A00E00D0069
:102DC000A66A616AA942FAD1AB4235D9EFF31088FD
:102DD00072B6214C21680029FCD0BFF35F8F01251A
:102DE00085401C491D4E4D633778ECB2A4463C43E8
:102DF0003470041DA4006250194C800003510C6A09
:102E000000202C420DD04C6A00E00400886A814604
:102E1000486AA042F9D1A34202D813D14A4511D938
:102E20000020BFF35F8F00220B4B1A6088F31088DD
:102E30000CBC90469946F0BDAB4201D1B242C5D818
:102E40000120F5E7034B01201D625D6363469F434C
:102E50003770E6E700400540280100D099160020B1
:102E60008416002010B5EFF3108472B60A490B687F
:102E7000002BFCD0BFF35F8F01238340074A084833
:102E8000136202789A430270BFF35F8F00230B60D6
:102E900084F3108810BDC046280100D000400540D2
:102EA00099160020024B9C466144890001607047DE
:102EB0004000003410B50400FFF7F6F901002000CF
:102EC000FFF7F0FFFF232371BFF35F8F10BDC046F4
:102ED00010B504000120FFF7F3F901002000FFF70F
:102EE000E1FFBFF35F8F10BDF8B54746CE4680B512
:102EF0004C0003686418033C1A19567807000D004B
:102F0000002E04D128000CBC90469946F8BD7100F3
:102F100089190339884643445978894600215970F4
:102F20005170002D11D07B683200290080689847CD
:102F30003B68002832D01A1943449D70117800294B
:102F400000D059701670A04600E035004B46002BAB
:102F5000D8D049463800FFF7C7FF041ED2D0020080
:102F60007B682900B868984763001B19033B3A68DF
:102F7000002809D1D318424494701978002900D050
:102F800051701D702500BDE74146D31851189D7042
:102F90000A78002A00D05A700C70B3E742461C1918
:102FA0009A18A6701378002B00D063701570350046
:102FB000CCE7C046F0B5C6468846050000B51021EE
:102FC0000120170003F040FC4346EEB204004360CA
:102FD00006730321280003F037FC0023FF216373ED
:102FE00001332060A760A373E6732940012907D944
:102FF000421C4D1C01331370013303329D42FAD140
:103000004B0059180023401803384370200004BCBB
:103010009046F0BDF0B54E4657464546DE46E0B513
:10302000467B03687400A419033C1A19177883B00F
:1030300005008946002F1ED1002911D1C07B002830
:103040002AD041000918591803394E70EE73002F29
:1030500006D07900C9190339884600214344997084
:103060000023300053706F7303B03CBC9046994608
:10307000A246AB46F0BD7900C919033988465918F4
:1030800048788246002809D149460029E5D1E87BE5
:103090000028D6D1EE73DCE7EE73E1E7420052443C
:1030A000033A93465B445A78019200225A704A7060
:1030B0006B6802003900A86898472B68002830D157
:1030C000414650465A4659189A1888701078002878
:1030D00000D048701770D8465746019A002A2DD064
:1030E00011002800FFF700FF8246002825D00200CB
:1030F00039006B68A8689847534659005144033912
:103100002B6800281CD04246591898188F700278F6
:1031100094461A196446002C00D04C705146017038
:10312000B2E75946424659189A188F70107800280D
:1031300000D0487051461170CFE72B681A19A3E7E9
:103140005A18984493465046424690705A46127810
:10315000944660461A19002802D0404664464470DE
:1031600058468846077057468EE7C046F0B5454634
:10317000DE4657464E46E0B50C0083B005000023FE
:10318000002927D06600477B01683619033E88195D
:10319000A74233D08278002A1CD053009B18033BEF
:1031A000CB181A78A2421FD142781A7000230278F5
:1031B000837043709146002A33D1EA7B002A66D09F
:1031C00053009B18C91803394C70EC7300234370EB
:1031D00001236F73180003B03CBC90469946A24689
:1031E000AB46F0BD002AE1D053009B18033BCB183F
:1031F0005A78A242F6D142785A70D7E70278019203
:10320000002A46D1EA7B002A3FD053009B18C918F8
:1032100003394F70EF7300234370019B6B730123DD
:10322000D8E752004A44033A90468A185778002F4C
:1032300042D1EB7B002B00D029E14F466E7BEC7333
:10324000002393704370002EC2D03A006B683100A7
:10325000A868984773009B19033B2A68002808D088
:10326000D31842449670197800290CD11F7037008A
:10327000AEE74146D31851189F700A78002A00D053
:103280005A700E70A4E75170F0E7EF73C3E7EC7368
:103290009CE71400A44652006244033A90468A1800
:1032A0005478A146002C58D1EB7B002B00D0F7E0DE
:1032B000EF7300239370AEE77800C019033882469D
:1032C000514448784B7053706B6883463A004946C6
:1032D000A86898472B68002800D1A2E042469818B9
:1032E000524699184A468A700190020000780028D8
:1032F00001D0019A487017704F465A46002A28D0CC
:1033000059462800FFF7F0FD8146002820D0020032
:103310006B683900A86898474B465B004B44033BF9
:103320009C4600286DD042462B6898186246991832
:103330008F7001900078002800D083E04A46019801
:103340000270E97B98196E7B002951D1019A76E7CA
:103350002B6842469A180192F3E76000484403380C
:103360008246514448784B70537061462200834630
:103370006B68A868644698472968002878D0524648
:1033800043468A18CB1894701878002800D05070E3
:103390004A46C2461A705B46002B50D05946280058
:1033A000FFF7A2FD8046002848D0019C02002100C2
:1033B0006B68A868984743465A004244D31E296860
:1033C000002844D05246CB188A189C7010780028E8
:1033D00000D0587043461370EB7B8819002B00D146
:1033E00066E75E00F318C91803394F70EF7360E7A2
:1033F0004A00944661445B18033B5C70019AEC738D
:103400001EE729684846CA184346CB1898701078BA
:10341000804688194646002E00D05E701770E04640
:1034200007E74146524659189A188F7010780028BD
:1034300000D048704946D04611705EE7296853466F
:10344000CA18C9E74A46487001990A7079E7CA184C
:1034500053464046CB1898701078844664468819C5
:10346000002C00D05C70019B1370434601931BE756
:103470005346CA1843464846CB189870107800281F
:1034800000D05870019B13704B46019383E70326CD
:103490007343C91803394C706E7BEC734F46CFE60B
:1034A00003267343C91803394F7001E72B4B2C4A8D
:1034B00070B51A602B4A2C4B2C491A6010008B688F
:1034C0009843FBD12A4C2B4DAC4209D20322231D39
:1034D0000335ED1A9543ED1808CC9847AC42FBD163
:1034E00000F094F8244A204B1A60204A9368DB01CC
:1034F0008033FBD14022214B214C224D9A675A67E1
:103500001A67DA66AC420CD2230007350833ED1A8D
:10351000393A9543ED1820000834FFF7CBFCAC4254
:10352000F9D1194D194CC022A168280003F09EF969
:10353000A560FEF7ABFE00F0B3FBFFF771F8144C8B
:10354000144DAC4209D20322231D0335ED1A9543D5
:10355000ED1808CC9847AC42FBD170BD00E00040AC
:10356000BFCDFFFFFE7F3C0000F0004000C00040E8
:10357000880B0020980B0020FFFFFF0100F00140A6
:10358000800B0020880B00200000002000ED00E0F0
:10359000980B00209C0B0020094A1368002B06D0D2
:1035A00008491818884208D2106018007047064B66
:1035B0000449181813608842F6D301235B42F4E7EC
:1035C000E00F002000000420C819002000BEFDE725
:1035D0000FB400B5084883B003F022FA049B002B17
:1035E00007D005A91800019102F02AFA034803F058
:1035F00017FA00BEFDE7C0465C9900106C990010F8
:1036000010B50148FFF7E4FF5099001030B50C20C9
:1036100083B000F071F9FEF763FE00280ED09C4BDA
:103620009C4A1A605A609A60DA601A615A619A611B
:10363000DA611A62984A5A6203B030BD974CA067AB
:1036400000F062F90122964B1A60636C012BFCD1E9
:103650000322944B1A60914A936B012BFCD1C02238
:10366000914B92011A60914B91491A6010008B683E
:103670009843031EFAD1022406338E4A01218E4854
:10368000009400F055F905238C4A009401218C48E0
:1036900000F04EF98B4B5A68FF2A02D88022520064
:1036A0005A6080227A4C7F4B21691201854D1A6045
:1036B000002900D0E5E0E021824B02201A68114089
:1036C000802252012A4311601968484003210140B9
:1036D000116004219A681142FCD08022802192015D
:1036E0002A4309011160802252005A60764B2361FF
:1036F000764B5968FF2900D8C1E00322684B734814
:103700001A60012103009A681142FCD0E0251A6872
:10371000154080225201024315601B684B40032173
:10372000194011600221694A93681942FCD0802334
:1037300080219B010343090119608021644B4900EA
:1037400051606361634B5A68FF2A00D85960802238
:10375000614BE16912015F4D1A60002905D0606973
:1037600002F0E8F901300138FDD1E02259490B6837
:103770001A4080235B012B431A60802380229B0127
:103780002B4312011A608022424B52004A60E361CF
:10379000524B5968FF2900D85A608022504B216A49
:1037A00012014E4D1A60002905D0606902F0C2F97D
:1037B00001300138FDD1E02248490B681A408023CE
:1037C0005B012B431A60802380229B012B43120153
:1037D0001A6080235B004B602E4B424A2362424BAF
:1037E0005968914201D801325A6080223F4B616A88
:1037F00012013D4D1A60002905D0606902F09AF966
:1038000001300138FDD1E02237490B681A4080238E
:103810005B012B431A60802380229B012B43120102
:103820001A608023DB024B601B4B6362304B5A688B
:10383000FF2A02D8802252005A6080222D4BA169B3
:1038400012012B4D1A60002905D0606902F072F94F
:1038500001300138FDD1E02225490B681A40802350
:103860005B012B431A60802380229B012B431201B2
:103870001A6080235B004B60154BA361DCE65A6045
:103880003BE7606902F056F901300138FDD112E7DB
:10389000840F0020006CDC021BB700000080004099
:1038A0003CB0004030B0004000E0004000F000407C
:1038B00000C00040002F68590080024000389C1C66
:1038C00000C0024030800040001BB7003C80004038
:1038D000405973075480004054B00040608000405D
:1038E00060B00040FFFF03006C8000406CB00040FF
:1038F0004880004048B0004080239B001843014BA3
:10390000D862704700800540AA23064A1B01136055
:103910002F230549D360054B19605368002BFCDA4F
:103920007047C0460040024000B0FA00006002400C
:10393000F8B51D0006AB1E7801235B4243600023EF
:103940000400836001600C20170002F0F3F84201CC
:10395000121A9101891AC90009188901380002F068
:10396000E9F8C022231D92011A432123A0601360AD
:103970002368002BFCDA082336032D043543E56069
:103980001360F8BD01238340002902D1034A13606C
:103990007047034A1360034A1360F9E780E100E0CF
:1039A00080E200E000E100E001238340014A13606F
:1039B0007047C04600E200E0024B10309B68800078
:1039C000C058704700ED00E070B50D00EFF31086B1
:1039D00072B60F4A1368002BFCD0BFF35F8F0D4BFC
:1039E00010309B6884001B590B4A934203D09D42C0
:1039F00001D0FFF705FE074B9B681D51BFF35F8F9A
:103A0000BFF35F8F0022024B1A6086F3108870BDEF
:103A1000240100D000ED00E0CD010010F0B54546D6
:103A2000DE4657464E46E0B50D0083B0EFF3108AF0
:103A300072B6604A1368002BFCD0BFF35F8F102270
:103A4000914681444A465C4B96009B689C595B4B6F
:103A500098469C4205D0AC424AD0594FE31B2F2BCD
:103A600012D9554B9B689C51BFF35F8FBFF35F8F9B
:103A70000022504B1A608AF3108803B03CBC904679
:103A80009946A246AB46F0BD012383409B465A4669
:103A90004C4B1B681A4000925A464B4B1A60BFF3BE
:103AA0005F8FFCF7E0FB0190002803D0814501D037
:103AB000FFF7A6FD01232100062099438B688C4661
:103AC0000A0008569D420AD15DE043001B180620FB
:103AD0009B00FB1899681856A94211D01A000028BB
:103AE000F3DA009B002B05D15A46374B1A60B8E732
:103AF0001C00B6E75A46354B1A60324B1A60B0E7E5
:103B0000002825DB4200111889007D188846A96825
:103B10009960E979D971062169569971A9797F2946
:103B200013D8AD88F91A6D052D1545444919E025BE
:103B30000905490D2D02294399801218244B920042
:103B4000BF181A781870BA71CBE7BD210902F3E7E4
:103B50000199002920D1002A1CD0FF2090711D4816
:103B600090801B4A107898716346DF1BBF10BB0022
:103B7000DB1919015B1819025B1819045B185B004B
:103B8000DB191370ADE70B000028BBDA019A002A9D
:103B900002D163464446E4E70F4A1049D21A083A74
:103BA0005002400D014399800D4952080A43DA80C2
:103BB00097E7C046240100D000ED00E0CD010010E1
:103BC0009802002000E100E080E100E080E200E0F7
:103BD0009816002000BDFFFFD202002000F0FFFF7A
:103BE00000F8FFFFF8B5012504000543FCF73BFB97
:103BF000EFF3108772B6244A1368002BFCD0BFF392
:103C00005F8F224E8000A11B89108A005218130179
:103C1000D2181302D2181304D3181D4A5B005B1884
:103C200091680958A9421CD00622B256934226D068
:103C30001222B256934224D01E22B256934214D07E
:103C40002A22B25603219A4210D0124A11781370D8
:103C5000A171BFF35F8F00220B4B1A6087F31088AE
:103C6000F8BD92680C491150EFE702214A00521842
:103C70009200B618FF22B271084AB280E5E700212F
:103C8000F4E70121F2E7C046240100D098020020A9
:103C900000ED00E098160020CD01001000BDFFFFF0
:103CA000F0B500220324FF27802620003D00094BA9
:103CB00011009C461040C0008540A14361440B6840
:103CC0000132AB43350085402B430B60202AECD1F9
:103CD000F0BDC04600E400E07047C04610B50028C3
:103CE00003D04A680B681100984710BD10B5002832
:103CF00001D002F03FFE10BDF0B557464546DE4606
:103D00004E46E0B585B0984610AB1D78139B9346A0
:103D10009A460223149A0F00134006000F9C129932
:103D20000193002B2DD1013313409C465346002BA9
:103D300066D18C420DD21F2C00D912E10E9B30208F
:103D40001B1902E00133202C03D001341870A1426A
:103D5000F8D86346002B14D0A24512D90E9B302010
:103D60001B191F2C21D8AC461500524602E0013326
:103D7000202C17D0013418709442F8D192462A00B2
:103D80006546D3062ED5530519D4002C11D1119BAD
:103D9000102B00D1D9E0022B1FD10E9960330B708C
:103DA00001241AE092462A006546D3063ED5530503
:103DB00005D4A14200D19FE0544500D19CE0119B65
:103DC000102B65D0022B06D11F2C65D862210E9BCB
:103DD0001B19197001341F2C5ED830210E9B1B1942
:103DE000197001341F2C57D8002D1BD1530700D553
:103DF00070E0130750D520230E990B55013415E0C0
:103E00006346002B6BD0002D00D070E00C231342D2
:103E10006DD18C42A0D21F2C90D953462024202B48
:103E2000C3D8AEE72D230E990B550134930736D036
:103E30005B4603931A000E9B029499464B46013C45
:103E4000551C185D39004346B0472A00002CF5D1B7
:103E5000039A029B944663441D00019B002B0FD0E4
:103E60005B46EB1A53450BD22A005D46541C434671
:103E700039002020B0472200631B5345F6D32500AC
:103E8000280005B03CBC90469946A246AB46F0BD22
:103E9000930641D51F2C52D95D46930712D1544544
:103EA00038D25B4653441B1B0F941C000F9B5A4691
:103EB0009946551C434639002020B0472A00A542A8
:103EC000F7D14C46002CC8D00E9B039502942A00D3
:103ED0009946B3E72B230E990B550134A6E78C4284
:103EE00000D34EE71F2C00D828E7202449E7012300
:103EF0005B429946CA448CE7631E002B15D1119B87
:103F0000102B19D0022B00D147E730230E99012442
:103F10000B7069E75D46D5E71F2C00D986E778214D
:103F20000E9B1B191970013455E71199023C102999
:103F3000AED01C000B0045E793060DD50024582198
:103F40000E9B1B191970013445E7930604D55823BD
:103F50000E9901240B7040E778230E9901240B7011
:103F60003BE72024F5E6C046F0B5DE4657464E4610
:103F70004546E0B597B005000E0093461F00209A15
:103F8000219B1000190002F08AF8002800D0AEE250
:103F9000209821990122C54B524202F06DF8002869
:103FA00000D034E1209821990122C14B524202F005
:103FB00071F8002800D0C1E0209821990022BD4B63
:103FC00002F068F8002800D008E12098219900222A
:103FD000B94B02F051F8002800D0FFE02098219959
:103FE0000022002302F048F8002800D074E20023E9
:103FF0000D938023249ADB001A40904600D0BAE14A
:104000000023AE4C069307940EAB06249A462098E4
:10401000219902F06FF8099002F054F802000B00A9
:104020002098219901F0CBFF069A079B01F0E2FF4F
:104030000A900B9102F082F881460C9002F03EF853
:1040400002000B000A980B9901F0B9FF00229C4B6B
:104050000A900B9102F01EF8002800D1E5E14B46D2
:10406000013318000C9302F029F8069A079B02F01E
:1040700009F8002800D0FBE1002C00D09CE1099C4D
:10408000200002F01FF802000B002098219901F097
:1040900096FF00228A4B0690079101F0EDFF002861
:1040A00000D1D5E14346202B00D112E15C1C099BD5
:1040B0000A211800994601F011FD4246534630315D
:1040C000995448460A2101F009FDA046814600287E
:1040D0001ED05346A846BA464D461F00B14600E0E2
:1040E0003400202C00D162E228000A2101F0F6FC05
:1040F000661C30313C19217028000A2101F0EEFCC9
:10410000051EEDD13B0045465746B0469A464E4601
:104110000323249A1340012B00D1B1E1424620240D
:10412000202A00D1DCE00D9A002A00D135E2424677
:104130005146541C40462D220A54D1E0249B5B0773
:1041400000D5ADE05F4B9A46032398465B46069345
:10415000249B9B0718D1239B434500D84EE25B4428
:104160001C004346E41AB9465A4637002E00250083
:10417000541C4B4639002020B0472200AC42F7D1F6
:1041800035003E004F460694B14644465646BA4670
:104190002F00069A013C551C305D53464946B847EE
:1041A0002A00002CF6D1069B3D0043441A00249BB4
:1041B0009B0724D55B462399D31A99421FD92E0019
:1041C000D0464F460D00434639002020541CB047CE
:1041D0005B462200E31A9D42F5D810E0249B5A4624
:1041E0000493239B31000393229B28000293209B7E
:1041F000219C009301943B0000F032FA0200100071
:1042000017B03CBC90469946A246AB46F0BD249BF5
:10421000D8469B0718D1239B042B15D95B461C1F3E
:10422000239BB8469C46644437005A462E0025001E
:10423000541C434639002020B0472200AC42F7D13D
:1042400035003E004746A0461F4BB9464246370060
:1042500004249A462E005346013C551C185D390033
:104260004B46B0472A00002CF5D14246249B35002E
:1042700004323E009B07C2D55B462399D31A99426C
:10428000BDD93700C8462E000D0043463900202016
:10429000541CB0475B462200E31A9D42F5D8AEE7B6
:1042A0000A4B9A460423984650E7C046FFFFEFFFAB
:1042B000FFFFEF7F65CDCD4165CDCDC180842E411F
:1042C0000000E03F589B0010609B0010509B0010C6
:1042D000A2460323249A1340012B00D1CEE02024D0
:1042E000D846002B17D1239B9C4214D25B441B1B46
:1042F000B8465A463700A1462E001D00541C4346BE
:1043000039002020B0472200AC42F7D135003E00F2
:104310004746A0464C4643464246A146B84637006B
:104320002E0006935346013C551C185D3900434648
:10433000B0472A00002CF5D106994B468C466344C1
:104340001A00249B35003E009B0700D457E75B46CC
:104350002399D31A994200D851E737002E000D0057
:10436000434639002020541CB0475B462200E31A24
:104370009D42F5D843E7229B092B00D85BE10EABA9
:104380009A4630235246137001229046229B2F32C8
:104390005C1E4146203B504605E0013C4254013141
:1043A0009C4200D1EEE0092CF7D10022A84B8846B0
:1043B0008246069207932AE64346202B89D0631E45
:1043C000069301230C9C434420000A21994601F0E6
:1043D000B1FB534642463031995420000A2101F086
:1043E000A9FB041E00D122E1A84625004C46B9468F
:1043F0005746B24612E0069B2800013B0A2106936D
:1044000001F098FB661C30313C19217028000A210C
:1044100001F090FB051E00D1CFE03400202CEAD142
:1044200056464546BA464F4653E700220A980B992E
:10443000884B01F021FE002800D01DE60C9B002BCC
:1044400002D0DB0700D417E60C9B01330C9313E674
:104450000022069807997F4B01F01CFE002800D02F
:1044600020E60123A44623409C446346099319E6B1
:10447000099B0133099300230C93FDE52023984603
:10448000239B002B00D1BFE00D9B002B03D1249A6E
:104490000C33134202D0239B013B2393239B4345C0
:1044A00000D8B1E042463023202A00D1B1E0424694
:1044B00050462399541C83548C4200D1A1E0220021
:1044C000202CF7D1202399465B46B8468246370018
:1044D00006935A462E0025E7209A219B00200021B2
:1044E00001F06DFD0123209021910D9381E5249B26
:1044F000D8469B0718D1239B032B15D95B46DC1E9E
:10450000239BB8469C46644437005A462E0025003B
:10451000541C434639002020B0472200AC42F7D15A
:1045200035003E004746A0464B4BB9464246370051
:1045300003249A462E005346013C551C185D390051
:104540004B46B0472A00002CF5D14246249B35004B
:1045500003323E009B0700D451E65B462399D31AF1
:10456000994200D84BE63700C8462E000D0043465E
:1045700039002020541CB0475B462200E31A9D42BC
:10458000F5D83CE6354BE2009B181A685B6806924A
:10459000079320238246984639E5249A52073BD553
:1045A00042465146541C40462B220A5498E63B0092
:1045B000454657464E469A468BE64546B0465646D1
:1045C000BA464F464346202B00D182E6069B404622
:1045D0001A004244110054463022002B29D0431CBB
:1045E0002254202B00D173E618008B42F7D1A2464B
:1045F0005A1C904651462E22CA5453E55B460693F8
:10460000C2E5239B8246984642460123202A00D0D9
:1046100089E52024D8467EE6249A4446120700D431
:104620005EE620225146404601340A5458E6C84608
:10463000C8E74346DCE7DA00084B9B185C681B6858
:1046400006930794002398460EAB229C9A46DEE41C
:1046500065CDCD410000E03F5C9B0010689B0010E1
:10466000F0B5DE4657464E464546E0B59FB09A4601
:10467000299B289C1D0081468B460A92119300229B
:104680000023200029000E9401F0F6FC002800D041
:10469000E0E2119B0E9A9846089280232C9ADB0048
:1046A0001A40131E149201D106332A934346580030
:1046B000D54B400D9C46604401F004FDD34AD44BD9
:1046C00001F098FCD34AD44B01F082FC4346D34A14
:1046D0001B03089E1B0B1A4304000D003000110041
:1046E000CF4B002201F06BFCCE4ACF4B01F082FC95
:1046F00002000B002000290001F06AFC01F0FAFC26
:104700000B9001F0DFFCC94AC94B04000D0001F019
:1047100071FC0022C74B01F05BFC01F0EBFCC64AC8
:104720000600C64B2000290001F064FC04003000A4
:104730000D00109601F0C6FCC14AC24B01F05AFCB4
:1047400002000B002000290001F039FC02000B00E0
:1047500006000F0001F04EFC320004000D003B008B
:104760003000390001F034FC00220C900D91B64B62
:104770002000290001F035FC0022B44B01F028FC98
:1047800002000B002000290001F02BFC0022B04B9E
:1047900001F01EFC02000B002000290001F021FCAA
:1047A0000D008021040032003B000020C90501F00B
:1047B00006FC02000B002000290001F009FC0200A9
:1047C0000B000C980D9901F00CFC0022934B01F0AA
:1047D000FFFB109B9F4A1C00944664442305002263
:1047E00001F008FC04000D0002000B00089841468F
:1047F00001F042FC00280AD00B9B2000013B0B93E8
:1048000029000022914B01F0ECFB04000D000B9EEF
:10481000C6233200633293429B415B4204330C93C4
:104820002C9B1B0521D5089F8B4A8C4B3800414699
:1048300001F028FC002800D198E10022884B3800C4
:10484000414601F019FC002800D18FE12A9A9642D6
:1048500000DBF9E2931B013B2A9380232C9ADB00B7
:104860001A4300232C920C930B9300232B99109343
:104870000C9B8B4201D2CB1A109302232C9A1A4024
:10488000149206D00C9B5A425341109A5B421A4034
:1048900010920B9B002B07D00898414622002B005A
:1048A00001F09FFB88460890002200230E98119982
:1048B00001F0E2FB002803D080210906414488462C
:1048C000089C434622002000414601F0E8FB0028F6
:1048D00000D0FEE20122634B52420898414601F0AB
:1048E000CBFB002800D0BDE101225F4B524208986B
:1048F000414601F0CFFB002800D0E1E0089C0022F7
:104900005A4B2000414601F0C5FB002800D038E199
:104910000022574B2000414601F0AEFB002800D09A
:104920002FE1002200230898414601F0A5FB002852
:1049300000D0C3E20023159380252C9BED001D4081
:1049400000D067E20023464C16AF0E930F94062466
:10495000089E4146300001F0CDFB119001F0B2FB02
:1049600002000B003000414601F029FB0E9A0F9B1C
:1049700001F040FB1290139101F0E0FB060001F002
:104980009DFB02000B001298139901F018FB002206
:10499000284B1290139101F07DFB002800D11FE2FB
:1049A0000136300001F08AFB0E9A0F9B01F06AFB82
:1049B000002800D05BE2002C00D098E1119C200080
:1049C00001F080FB02000B000898414601F0F7FA65
:1049D0000022184B0890099101F04EFB002800D1ED
:1049E00035E2202D00D1ABE1119E0A21300001F00B
:1049F00075F83031795530000A2101F06FF86C1CE0
:104A0000061E38D1E1E2C04601FCFFFFFB799F5052
:104A10001344D33FB3C8608B288AC63F0000F03FE1
:104A20000000F83F61436F63A787D23F71A3790904
:104A30004F930A400000E03F1655B5BBB16B0240F2
:104A4000EF39FAFE422EE63F00002C4000002440E1
:104A500000001840FF0300002D431CEBE2361A3F14
:104A600080842E41FFFFEFFFFFFFEF7F65CDCD413B
:104A700065CDCDC12C00202C00D161E130000A2190
:104A800001F02CF8651C30313C19217030000A21EE
:104A900001F024F8061EEDD103232C9A1340012BBC
:104AA00000D1EAE120229046202D00D150E1159A54
:104AB000002A00D155E26A1C90462D227A5547E122
:104AC0002C9B5B0700D50EE103239846CC4F0A9937
:104AD0002C9B0C009B0715D1109B434512D99C467B
:104AE00043464E46B9465F460A006144CD1A541CFF
:104AF000534639002020B0472200AC42F7D1BB46D4
:104B00004F46B1464B462200A14645461C00013D9A
:104B1000561C785D53465946A0473200002DF6D109
:104B200023004C4622009946149B4244002B3BD064
:104B30000A9B109ED31A9E4236D94F465D46534675
:104B400029002020541CB8470A9B2200E31A9E42E9
:104B5000F5D8B946AB460C9C002C28D110001FB0EC
:104B60003CBC90469946A246AB46F0BD2A9B002B22
:104B700000D17AE6149B5A1E93412A9AD31A2A939B
:104B800073E62C9A9F4B594613400493109B089A46
:104B900003932A9B484602934346009201930A9A44
:104BA0005346FFF75DFD02000C9C002CD6D0202060
:104BB0002C9B013C034059424B415B421840531C23
:104BC0000893453053465946C8470B9B16AFDA1732
:104BD0009D18DB0F0B9455409846002402E03400EA
:104BE000202E0DD028000A2100F0A4FF661C3031D1
:104BF0003C19217028000A2100F09CFF051EEED10F
:104C0000052306930B9B089A0593002304930A330C
:104C100003934346019602930097534659464846EC
:104C2000FFF76AF8149B0200002B97D00A99431AE9
:104C30002B98984292D94E465F46884605005346C7
:104C400039002020541CB04743462200E31A9D42FD
:104C5000F5D883E7802212069446119B089463449A
:104C600098461AE50A9A2C9B14009B0711D1109BB9
:104C7000042B0ED99C464E465F46151F6544541CB6
:104C8000534639002020B0472200AC42F7D1B1464C
:104C9000BB462200A04604254C465B4F013D561CF6
:104CA000785D53465946A0473200002DF6D1A14603
:104CB0004446149B221D002B00D175E70A9B109ED1
:104CC000D31A9E4200D86FE74F465D4653462900EF
:104CD0002020541CB8470A9B2200E31A9E42F5D8B4
:104CE000B946AB4637E70423484F9846EFE6202DF8
:104CF00026D0631E30000A21984600F01BFF303199
:104D0000795530000A2100F015FF6C1C061E00D1F9
:104D10005DE14546B84610E030000A2100F00AFF88
:104D2000671C30314444217030000A2100F002FF3A
:104D3000013D061E00D11CE13C00202CECD1474671
:104D400003232C9A1340012B00D195E0202290469A
:104D50000A990C00002B15D1109B434512D99C4693
:104D600043464E46B9465F460A006144CD1A541C7C
:104D7000534639002020B0472200AC42F7D1BB4651
:104D80004F46B1465B4639002200A3464F46454692
:104D900089461C004B46013D561C585D2100534678
:104DA000B8473200002DF5D123005C4622009B4617
:104DB000149BB9464244002B00D1F5E60A9B109E95
:104DC000D31A9E4200D8EFE65D46534629002020C4
:104DD000541CB8470A9B2200E31A9E42F5D8B8E655
:104DE0000022129813990A4B01F046F9002800D0CE
:104DF000E1E5002E02D0F30700D4DCE50136DAE568
:104E0000589B0010FFF7FFFF609B0010509B0010A5
:104E10000000E03F2A9B092B00D8DCE0302316AFCE
:104E20003B702A9B01255C1E3022203B05E0013CA3
:104E30007A5501359C4200D18AE0092CF7D1002235
:104E40006A4B0E920F9383E500232A9305E5002217
:104E500008980999664B01F01DF9002800D0C0E5BB
:104E60000123A44623409C4463461193B9E5119B5A
:104E70000026013311939EE52025109B002B00D1C5
:104E800090E0159B002B03D12C9A0C33134202D0D7
:104E9000109B013B1093109B9D4200D382E0302277
:104EA0001900202D06D06B1C7A558B4279D01D003D
:104EB000202BF8D120230A9C984663E74346089AA2
:104EC0000020002101F07BF801230890884615930B
:104ED00032E50A9A2C9B14009B0711D1109B032BDF
:104EE0000ED99C464E465F46D51E6544541C53461B
:104EF00039002020B0472200AC42F7D1B146BB4672
:104F00002200A04603254C463A4F013D561C785DD1
:104F100053465946A0473200002DF6D1A1464446DB
:104F2000149BE21C002B00D13EE60A9B109ED31A74
:104F30009E4200D838E64F465D4653462900202061
:104F4000541CB8470A9B2200E31A9E42F5D800E69B
:104F5000294BE2009B181A685B6820250E920F937C
:104F6000F6E42C9A520725D56A1C90462B227A55D6
:104F7000EEE64346A8463D001F00202D00D1DFE6A7
:104F8000434630225919002B23D06B1C7A55202B15
:104F900000D1D5E61D008B42F7D12E225D1CFA54BC
:104FA0001FE5109D0123202D00D080E51F3398467A
:104FB0000A9CE7E62C9AA846120700D4C8E601220C
:104FC00094461F32E0447A55C2E6250064E5250088
:104FD000D3E72B00E1E7DA00074B00259B185C685C
:104FE0001B6816AF0E930F942A9CB1E465CDCD419A
:104FF0000000E03F5C9B0010689B0010F0B5DE46AF
:10500000574645464E46E0B59FB01D00289B089286
:105010000993B54AB54B83468A461A60002966D083
:10502000B34B00279846287800280BD00135252857
:1050300018D03A00089B5146D84728787C1C270096
:105040000028F3D1089B3A009F4200D35A1E5146D4
:105050000020D84738001FB03CBC90469946A24675
:10506000AB46F0BD1023287899460C3B9C460300C4
:10507000203B6A1CDBB200241100102B0ED84646E0
:105080009B00F3589F46012315001C4328786A1C97
:105090000300203BDBB21100102BF0D90300303BA2
:1050A000092B00D88FE1002399462A2800D1B3E1CB
:1050B00000230C932E2800D1A0E10300683BDBB253
:1050C000122B00D913E28B4A9B00D3589F466346AC
:1050D00015001C43DAE7022315001C43D6E74B46B4
:1050E00015001C43D2E7082315001C43CEE7824B72
:1050F0009B4695E780235B0068781C434D1C0300AA
:10510000253BDBB2532B94D87C4A9B00D3589F4657
:1051100068786C2800D190E280235B001C434D1C12
:10512000EDE780239B0068781C434D1CE7E7687817
:10513000682800D17CE280234D1C1C43DFE7462811
:1051400000D104E20722099B049407339343013200
:1051500094469C44624609924A4603920C9A0292F3
:105160005C681B68009301943A00089B51465846BE
:10517000FEF7FAFE070056E73A007C1C089B5146F2
:105180002520D84727004EE7099B1A1D1B6810925F
:10519000099318780C9B002B00D0B6E102225242F2
:1051A000002801D100F023FC099B84461E0010005A
:1051B00001211A0004E08B1BD3181B18002B03D00D
:1051C00001363378002BF6D16046099BF61A80230E
:1051D000DB0023400A9303D00C9B9E4200D91E00A3
:1051E000022323400D9300D153E2002800D136E280
:1051F0000A9B002B00D088E3099B3A00DC1B2300AC
:105200005C46AB465546B2461E00571C089B29001B
:10521000A047F05D3A000028F7D15646AA465D4601
:10522000A3460D9B002B00D019E2109B0993FAE6D0
:10523000099B1A1D1B680992002B00D159E12122FC
:105240001443A4460F21002216AC894602E020290F
:105250000CD00A0049461940CEB230003730092937
:1052600000D80738511CA0541B09F0D1634606939F
:10527000082305930C9B01910493102303930023AF
:1052800002933A000094089B51465846FEF734FDBD
:105290000700C8E6099B04330C937B1C0A931E008D
:1052A000A30700D436E1099B3A0018785146089BC1
:1052B000D8474B464F44012B00D85BE32B0032000C
:1052C00055465E469A46541C089B29002020B0474C
:1052D0002200BC42F7D15346B346AA4627001D0020
:1052E0000C9B09939FE6C046FD4F001064160020FA
:1052F00070990010B4990010D93C0010009A001069
:10530000782800D126E1582800D19CE16F2800D1EF
:1053100052E2622800D12AE3102322009A430A9223
:10532000692800D077E3630500D542E280239B0023
:105330001C40A446F73BFF3B0D936346002B00D077
:10534000DCE180260A9B76001E40099B0433109303
:10535000002E00D0AAE20A9B5B0600D49EE2099BC5
:105360001B78DA1798185040DA0F1192002B08D1E9
:105370000A9A1033110099430B000A91520500D587
:105380002FE30A9A6123920600D54123DBB20A3B40
:10539000149716AC09930D9F0AE03033DBB2721CF0
:1053A000A355002800D194E1202A00D191E11600F4
:1053B000390000F0BFFBCBB20929EED9099A944617
:1053C0006344DBB2EBE7002399460300494601E062
:1053D00015000132880040184000C0181378010001
:1053E0001800303830390928F2D9180000238946CE
:1053F0000C93A91C15002E2800D05EE68023687847
:10540000DB001C430300303B092B15D92A2800D1AF
:1054100002E10D00013150E609990B1D096889462A
:10542000002904DA02210C4349464942894668783A
:10543000A91C099315003BE60300002200E02900A7
:10544000900080184000C0184B78020018003038D7
:105450004D1C303A0928F2D918000C9202312CE682
:10546000202302009A43472A04D180231B011C43B6
:1054700002239843452801D120231C430722099B7E
:1054800007339343013294469C44624609921A685A
:105490005B68100019000A900B9100F000FE0028D4
:1054A00000D0B1E00A980B990122D24B524200F091
:1054B000F1FD002800D0A7E00A980B990122CE4BFD
:1054C000524200F0D9FD002800D09DE04B460393E6
:1054D0000C9B049402933A000A9B0B9C5146009348
:1054E00001945846089BFFF7BBF807009BE50D00A9
:1054F00005E6102221009143113211438C466205CA
:1055000000D49FE6002116ACB0E6002800D16EE280
:105510005A1E49E64B46012B00D871E27C1E4C44D2
:10552000A9462500340001E027000134089B3A0019
:10553000514620202600D847AC42F5D14D460237CF
:10554000099B320018785146089BD847C8E62023AB
:105550001C43F7E580231022DB0023400D920C2230
:1055600094430A942200002B02D001239A430A920A
:1055700080230A9A9B001A409446692800D1DCE6F1
:10558000642800D1D9E66346002B00D049E180268B
:105590000A9B76001E40099B04331093002E00D016
:1055A000F0E10A9B5B0600D4E6E1099B187800282D
:1055B00008D10A9A1023110099430B000A91520551
:1055C00000D511E20A9A6123920600D54123DBB28D
:1055D0000A3B119516AC09930D9D0AE03033DBB2FE
:1055E000721CA355002800D1F8E0202A00D1F5E074
:1055F0001600290000F09EFACBB20929EED9099ACB
:1056000094466344DBB2EBE74B4603930C9B049454
:1056100002930A9B0B9CA5E5099EA8783268E91CB9
:10562000D343DB171A40331D0C920993023544E52E
:10563000C023A8781C43033561E5C0239B00A878EC
:105640001C4303355BE50C2322009A4314331A43B1
:105650000A92630500D4A4E010230D9385E7B145B9
:1056600000D8E2E54B46DB199E1B089B3A009946A1
:105670002B005C4655469A4601374B4629002020B0
:10568000A0473A00B742F7D15346A346AA461D00A9
:10569000CBE5731CB14500D8B8E14B46DB199E1B26
:1056A000089B5C463A00AB4655469A46013753463E
:1056B00029002020A0473A00B742F7D14B46AA461E
:1056C0005D46A3465E1C099B1878002800D08FE534
:1056D000ABE5149F0A9B06934B4605930C9B0493E2
:1056E0000D9B0393119B0293019200943A00089B37
:1056F00051465846FEF700FB070096E50722099B36
:1057000007339343013294469C446246099244CB4A
:10571000F3171293139312981399030053400E93A7
:105720000B0073400F930E9B0F9C1B1A8C410E9322
:105730000F94F30F1593324307D10A9A10231100E7
:1057400099430A91520500D55DE10A9A61239206B8
:1057500000D54123DBB20A3B10934B4616AC1197A0
:10576000A94627000E9C0F9D002614930BE03032B3
:10577000D2B2BA550200731C04000D000A433DD09A
:10578000202B3BD01E000D9A00232000290000F0A2
:1057900017FAD2B2092AEAD9109B9C466244D2B2C7
:1057A000E7E780239B001C40F13BFF3BA4460D93A1
:1057B000E9E60A230D93D8E608230D938023DB0046
:1057C0002340642800D0CAE622000A94002B00D0AF
:1057D000CBE680239B001A409446AEE5119D0A9BC0
:1057E00006934B4605930C9B04930D9B0393002358
:1057F00079E7C046FFFFEF7FFFFFEFFF149A0E949B
:105800000F954D4691463C00119F0A9A01930692CE
:105810004A4605920C9A04920D9A0392159A0292A6
:105820002FE50722099B07339343013294469C449A
:10583000624603CB030009920B4308D10A9A103346
:1058400014009C4323000A94520500D5E0E00A9A14
:105850006123920600D54123DBB20A3B1495002652
:1058600016AC109311970D9D0AE03032D1B2A155BC
:105870001800721C39003B4365D0202A63D0160003
:105880002A00002300F09CF9D2B203000F00092A7D
:10589000EBD910998C466244D1B2E8E70A9B1B060B
:1058A00000D4A7E0099B00229B5E5AE5099B1B6878
:1058B000DA1798185040DA0F1192002B08D10A9A83
:1058C0001033110099430B000A91520500D588E06E
:1058D0000A9B61269B0600D54126F6B2099716ACB5
:1058E0000A3E674608E03033DBB27A1CE3550028F5
:1058F00071D0202A6FD017000D9900F01BF9CBB2A0
:105900000929F0D99B19DBB2EFE70C9B3A00DC19AF
:10591000099BDB1B09932B005546B2465E469B460E
:1059200008E0089B2900571CB047099BD85D002858
:1059300017D03A009442F4D15B462700B34656464E
:10594000AA461D006DE4119F149D0A9B06934B46C9
:1059500005930C9B019204930D9B039300230293E8
:105960008FE45B46B3465646AA461D0059E402231F
:105970000D9323E70A9FB3E40A9B1B063DD5099BC1
:10598000188814E6099B1868002807D10A9A102382
:10599000110099430B000A91520525D40A9B6126F8
:1059A0009B0600D54126F6B2099716AC0A3E67461B
:1059B00008E03033DBB27A1CE35500280ED0202AF1
:1059C0000CD017000D9900F0B5F8CBB20929F0D929
:1059D0009B19DBB2EFE7099F0A9B7CE6099F0A9BB4
:1059E000FEE6002216AC76E6002216ACF8E60026AB
:1059F000FFF7EDFB099B1B68B3E4099B1868D6E52C
:105A00003E000A9F9CE5002316ACFEE61E005CE605
:105A1000002216AC9AE7063B14000D93CEE6C04672
:105A200000B585B003910121029000930348130053
:105A30004A4202A9FFF7E2FA05B000BDDD3C0010C2
:105A400010B5094A84B01468002C09D001220091D5
:105A50000300524203A90548A047012004B010BD2D
:105A600000F0DEFF0020F9E764160020ED3C001096
:105A700001480421014B1847E0020020A15A001000
:105A8000142310B50100188804331B88984710BDF3
:105A9000162310B50100188802331B88984710BDE3
:105AA000F0B5C64600B5002916D014230400012520
:105AB00098461827890046184346216818883B886D
:105AC000984701C4431E984140420540A642F3D185
:105AD000280004BC9046F0BD0125F9E7144A936FF5
